{
  "contractName": "VotingSystem",
  "abi": [
    {
      "anonymous": false,
      "inputs": [
        {
          "indexed": false,
          "internalType": "uint256",
          "name": "electionId",
          "type": "uint256"
        },
        {
          "indexed": false,
          "internalType": "string",
          "name": "name",
          "type": "string"
        },
        {
          "indexed": false,
          "internalType": "address",
          "name": "creator",
          "type": "address"
        }
      ],
      "name": "ElectionCreated",
      "type": "event"
    },
    {
      "anonymous": false,
      "inputs": [
        {
          "indexed": false,
          "internalType": "uint256",
          "name": "electionId",
          "type": "uint256"
        },
        {
          "indexed": false,
          "internalType": "uint256",
          "name": "totalVotes",
          "type": "uint256"
        }
      ],
      "name": "ElectionEnded",
      "type": "event"
    },
    {
      "anonymous": false,
      "inputs": [
        {
          "indexed": false,
          "internalType": "uint256",
          "name": "electionId",
          "type": "uint256"
        },
        {
          "indexed": false,
          "internalType": "bytes32",
          "name": "commitmentHash",
          "type": "bytes32"
        }
      ],
      "name": "VoteCast",
      "type": "event"
    },
    {
      "inputs": [],
      "name": "electionCount",
      "outputs": [
        {
          "internalType": "uint256",
          "name": "",
          "type": "uint256"
        }
      ],
      "stateMutability": "view",
      "type": "function",
      "constant": true
    },
    {
      "inputs": [
        {
          "internalType": "uint256",
          "name": "",
          "type": "uint256"
        }
      ],
      "name": "elections",
      "outputs": [
        {
          "internalType": "uint256",
          "name": "id",
          "type": "uint256"
        },
        {
          "internalType": "string",
          "name": "name",
          "type": "string"
        },
        {
          "internalType": "string",
          "name": "description",
          "type": "string"
        },
        {
          "internalType": "uint256",
          "name": "startTime",
          "type": "uint256"
        },
        {
          "internalType": "uint256",
          "name": "endTime",
          "type": "uint256"
        },
        {
          "internalType": "bool",
          "name": "isActive",
          "type": "bool"
        },
        {
          "internalType": "address",
          "name": "creator",
          "type": "address"
        },
        {
          "internalType": "uint256",
          "name": "candidateCount",
          "type": "uint256"
        }
      ],
      "stateMutability": "view",
      "type": "function",
      "constant": true
    },
    {
      "inputs": [
        {
          "internalType": "string",
          "name": "_name",
          "type": "string"
        },
        {
          "internalType": "string",
          "name": "_description",
          "type": "string"
        },
        {
          "internalType": "uint256",
          "name": "_startTime",
          "type": "uint256"
        },
        {
          "internalType": "uint256",
          "name": "_endTime",
          "type": "uint256"
        },
        {
          "internalType": "string[]",
          "name": "_candidateNames",
          "type": "string[]"
        },
        {
          "internalType": "string[]",
          "name": "_candidateInfos",
          "type": "string[]"
        }
      ],
      "name": "createElection",
      "outputs": [],
      "stateMutability": "nonpayable",
      "type": "function"
    },
    {
      "inputs": [
        {
          "internalType": "uint256",
          "name": "_electionId",
          "type": "uint256"
        },
        {
          "internalType": "bytes32",
          "name": "_commitmentHash",
          "type": "bytes32"
        }
      ],
      "name": "vote",
      "outputs": [],
      "stateMutability": "nonpayable",
      "type": "function"
    },
    {
      "inputs": [
        {
          "internalType": "uint256",
          "name": "_electionId",
          "type": "uint256"
        },
        {
          "internalType": "uint256",
          "name": "_candidateId",
          "type": "uint256"
        },
        {
          "internalType": "bytes32",
          "name": "_blindingFactor",
          "type": "bytes32"
        }
      ],
      "name": "revealVote",
      "outputs": [],
      "stateMutability": "nonpayable",
      "type": "function"
    },
    {
      "inputs": [
        {
          "internalType": "uint256",
          "name": "_electionId",
          "type": "uint256"
        }
      ],
      "name": "endElection",
      "outputs": [],
      "stateMutability": "nonpayable",
      "type": "function"
    },
    {
      "inputs": [
        {
          "internalType": "uint256",
          "name": "_electionId",
          "type": "uint256"
        },
        {
          "internalType": "uint256",
          "name": "_candidateId",
          "type": "uint256"
        }
      ],
      "name": "getCandidate",
      "outputs": [
        {
          "internalType": "uint256",
          "name": "id",
          "type": "uint256"
        },
        {
          "internalType": "string",
          "name": "name",
          "type": "string"
        },
        {
          "internalType": "string",
          "name": "info",
          "type": "string"
        },
        {
          "internalType": "uint256",
          "name": "voteCount",
          "type": "uint256"
        }
      ],
      "stateMutability": "view",
      "type": "function",
      "constant": true
    },
    {
      "inputs": [
        {
          "internalType": "uint256",
          "name": "_electionId",
          "type": "uint256"
        }
      ],
      "name": "getCandidateCount",
      "outputs": [
        {
          "internalType": "uint256",
          "name": "",
          "type": "uint256"
        }
      ],
      "stateMutability": "view",
      "type": "function",
      "constant": true
    },
    {
      "inputs": [
        {
          "internalType": "uint256",
          "name": "_electionId",
          "type": "uint256"
        }
      ],
      "name": "isElectionActive",
      "outputs": [
        {
          "internalType": "bool",
          "name": "",
          "type": "bool"
        }
      ],
      "stateMutability": "view",
      "type": "function",
      "constant": true
    }
  ],
  "bytecode": "0x608060405234801561001057600080fd5b506111c4806100206000396000f3fe608060405234801561001057600080fd5b50600436106100935760003560e01c80635e6fef01116100665780635e6fef011461011957806368bb8bb6146101405780636ee17f6f14610153578063997d2830146101765780639c98bcbb1461017f57600080fd5b80631d2cd6441461009857806326f6a2aa146100ad578063300bacd8146100e35780634bd46448146100f6575b600080fd5b6100ab6100a6366004610c13565b610192565b005b6100d06100bb366004610c3f565b60009081526001602052604090206007015490565b6040519081526020015b60405180910390f35b6100ab6100f1366004610dae565b6102f0565b610109610104366004610e6d565b61058a565b6040516100da9493929190610ed5565b61012c610127366004610c3f565b610743565b6040516100da989796959493929190610f12565b6100ab61014e366004610e6d565b6108a2565b610166610161366004610c3f565b610a27565b60405190151581526020016100da565b6100d060005481565b6100ab61018d366004610c3f565b610a64565b6000838152600160205260409020600581015460ff166101cd5760405162461bcd60e51b81526004016101c490610f75565b60405180910390fd5b6000831180156101e1575080600701548311155b6102245760405162461bcd60e51b815260206004820152601460248201527339a5e839a56239e6a13960267a6022792eae925160621b60448201526064016101c4565b604080516020808201869052818301859052825180830384018152606090920183528151918101919091206000818152600885019092529190205460ff166102ae5760405162461bcd60e51b815260206004820152601e60248201527fe69caae689bee588b0e58cb9e9858de79a84e68a95e7a5a8e689bfe8afba000060448201526064016101c4565b600084815260068301602052604081206003018054916102cd83610fcc565b90915550506000908152600890910160205260409020805460ff19169055505050565b82841061034b5760405162461bcd60e51b8152602060048201526024808201527fe5bc80e5a78be697b6e997b4e5bf85e9a1bbe697a9e4ba8ee7bb93e69d9fe6976044820152632dba65ed60e21b60648201526084016101c4565b805182511461039c5760405162461bcd60e51b815260206004820152601860248201527fe58099e98089e4babae4bfa1e681afe4b88de58cb9e9858d000000000000000060448201526064016101c4565b60018251116103ed5760405162461bcd60e51b815260206004820152601b60248201527fe887b3e5b091e99c80e8a681e4b8a4e5908de58099e98089e4baba000000000060448201526064016101c4565b6000805490806103fc83610fcc565b909155505060008054808252600160208190526040909220908155908101610424888261106e565b5060028101610433878261106e565b50600381018590556004810184905560058101805433610100026001600160a81b03199091161760011790556000600782018190555b83518110156105435760078201805490600061048483610fcc565b91905055506040518060800160405280836007015481526020018583815181106104b0576104b061112e565b602002602001015181526020018483815181106104cf576104cf61112e565b602090810291909101810151825260009181018290526007850154825260068501815260409091208251815590820151600182019061050e908261106e565b5060408201516002820190610523908261106e565b50606091909101516003909101558061053b81610fcc565b915050610469565b507f86a3370600c4089c572e5fa1f974825253da2be6295eb9e0eef3423aebd991b0600054883360405161057993929190611144565b60405180910390a150505050505050565b60008281526001602052604081206060908190839085158015906105b2575080600701548611155b6105f55760405162461bcd60e51b815260206004820152601460248201527339a5e839a56239e6a13960267a6022792eae925160621b60448201526064016101c4565b600086815260068201602052604090208054600382015460018301805490916002850191839061062490610fe5565b80601f016020809104026020016040519081016040528092919081815260200182805461065090610fe5565b801561069d5780601f106106725761010080835404028352916020019161069d565b820191906000526020600020905b81548152906001019060200180831161068057829003601f168201915b505050505092508180546106b090610fe5565b80601f01602080910402602001604051908101604052809291908181526020018280546106dc90610fe5565b80156107295780601f106106fe57610100808354040283529160200191610729565b820191906000526020600020905b81548152906001019060200180831161070c57829003601f168201915b505050505091509550955095509550505092959194509250565b60016020819052600091825260409091208054918101805461076490610fe5565b80601f016020809104026020016040519081016040528092919081815260200182805461079090610fe5565b80156107dd5780601f106107b2576101008083540402835291602001916107dd565b820191906000526020600020905b8154815290600101906020018083116107c057829003601f168201915b5050505050908060020180546107f290610fe5565b80601f016020809104026020016040519081016040528092919081815260200182805461081e90610fe5565b801561086b5780601f106108405761010080835404028352916020019161086b565b820191906000526020600020905b81548152906001019060200180831161084e57829003601f168201915b505050506003830154600484015460058501546007909501549394919390925060ff82169161010090046001600160a01b03169088565b6000828152600160205260409020600581015460ff166108d45760405162461bcd60e51b81526004016101c490610f75565b806003015442101561091d5760405162461bcd60e51b8152602060048201526012602482015271e68a95e7a5a8e5b09ae69caae5bc80e5a78b60701b60448201526064016101c4565b80600401544211156109635760405162461bcd60e51b815260206004820152600f60248201526ee68a95e7a5a8e5b7b2e7bb93e69d9f60881b60448201526064016101c4565b600082815260088201602052604090205460ff16156109c45760405162461bcd60e51b815260206004820152601b60248201527fe6ada4e689bfe8afbae59388e5b88ce5b7b2e8a2abe4bdbfe794a8000000000060448201526064016101c4565b600082815260088201602052604090819020805460ff19166001179055517f360a953ca6204e950fa88a5b660c09f12df914124ec5270703b41dcc58b5674890610a1a9085908590918252602082015260400190565b60405180910390a1505050565b6000818152600160205260408120600581015460ff168015610a4d575080600301544210155b8015610a5d575080600401544211155b9392505050565b6000818152600160205260409020600581015461010090046001600160a01b03163314610add5760405162461bcd60e51b815260206004820152602160248201527fe58faae69c89e5889be5bbbae88085e58fafe4bba5e7bb93e69d9fe68a95e7a56044820152601560fb1b60648201526084016101c4565b600581015460ff16610b3b5760405162461bcd60e51b815260206004820152602160248201527fe68a95e7a5a8e6b4bbe58aa8e5b7b2e7bb93e69d9fe68896e4b88de5ad98e59c6044820152601560fb1b60648201526084016101c4565b80600401544211610b8e5760405162461bcd60e51b815260206004820152601860248201527fe68a95e7a5a8e697b6e997b4e5b09ae69caae7bb93e69d9f000000000000000060448201526064016101c4565b60058101805460ff19169055600060015b82600701548111610bdc576000818152600684016020526040902060030154610bc89083611175565b915080610bd481610fcc565b915050610b9f565b5060408051848152602081018390527f32e2c12037f9600b91a766ce53eab6909f3bdb865851cd9a8c7fafbdf249a9ce9101610a1a565b600080600060608486031215610c2857600080fd5b505081359360208301359350604090920135919050565b600060208284031215610c5157600080fd5b5035919050565b634e487b7160e01b600052604160045260246000fd5b604051601f8201601f1916810167ffffffffffffffff81118282101715610c9757610c97610c58565b604052919050565b600082601f830112610cb057600080fd5b813567ffffffffffffffff811115610cca57610cca610c58565b610cdd601f8201601f1916602001610c6e565b818152846020838601011115610cf257600080fd5b816020850160208301376000918101602001919091529392505050565b600082601f830112610d2057600080fd5b8135602067ffffffffffffffff80831115610d3d57610d3d610c58565b8260051b610d4c838201610c6e565b9384528581018301938381019088861115610d6657600080fd5b84880192505b85831015610da257823584811115610d845760008081fd5b610d928a87838c0101610c9f565b8352509184019190840190610d6c565b98975050505050505050565b60008060008060008060c08789031215610dc757600080fd5b863567ffffffffffffffff80821115610ddf57600080fd5b610deb8a838b01610c9f565b97506020890135915080821115610e0157600080fd5b610e0d8a838b01610c9f565b965060408901359550606089013594506080890135915080821115610e3157600080fd5b610e3d8a838b01610d0f565b935060a0890135915080821115610e5357600080fd5b50610e6089828a01610d0f565b9150509295509295509295565b60008060408385031215610e8057600080fd5b50508035926020909101359150565b6000815180845260005b81811015610eb557602081850181015186830182015201610e99565b506000602082860101526020601f19601f83011685010191505092915050565b848152608060208201526000610eee6080830186610e8f565b8281036040840152610f008186610e8f565b91505082606083015295945050505050565b60006101008a8352806020840152610f2c8184018b610e8f565b90508281036040840152610f40818a610e8f565b60608401989098525050608081019490945291151560a08401526001600160a01b031660c083015260e0909101529392505050565b60208082526021908201527fe68a95e7a5a8e6b4bbe58aa8e4b88de5ad98e59ca8e68896e5b7b2e7bb93e69d6040820152609f60f81b606082015260800190565b634e487b7160e01b600052601160045260246000fd5b600060018201610fde57610fde610fb6565b5060010190565b600181811c90821680610ff957607f821691505b60208210810361101957634e487b7160e01b600052602260045260246000fd5b50919050565b601f82111561106957600081815260208120601f850160051c810160208610156110465750805b601f850160051c820191505b8181101561106557828155600101611052565b5050505b505050565b815167ffffffffffffffff81111561108857611088610c58565b61109c816110968454610fe5565b8461101f565b602080601f8311600181146110d157600084156110b95750858301515b600019600386901b1c1916600185901b178555611065565b600085815260208120601f198616915b82811015611100578886015182559484019460019091019084016110e1565b508582101561111e5787850151600019600388901b60f8161c191681555b5050505050600190811b01905550565b634e487b7160e01b600052603260045260246000fd5b83815260606020820152600061115d6060830185610e8f565b905060018060a01b0383166040830152949350505050565b8082018082111561118857611188610fb6565b9291505056fea26469706673582212207e97c81f61ca8e418913a3bd2afa951bc9b334023716d53a9f7d3dcb4a85336264736f6c63430008130033",
  "immutableReferences": {},
  "source": "// SPDX-License-Identifier: MIT\npragma solidity ^0.8.0;\n\n/**\n * @title \n * @dev \n */\ncontract VotingSystem {\n    // \n    struct Election {\n        uint256 id;\n        string name;\n        string description;\n        uint256 startTime;\n        uint256 endTime;\n        bool isActive;\n        address creator;\n        mapping(uint256 => Candidate) candidates;\n        uint256 candidateCount;\n        mapping(bytes32 => bool) hasVoted; // \n    }\n\n    // \n    struct Candidate {\n        uint256 id;\n        string name;\n        string info;\n        uint256 voteCount;\n    }\n\n    // \n    uint256 public electionCount;\n    \n    // \n    mapping(uint256 => Election) public elections;\n    \n    // \n    event ElectionCreated(uint256 electionId, string name, address creator);\n    event VoteCast(uint256 electionId, bytes32 commitmentHash);\n    event ElectionEnded(uint256 electionId, uint256 totalVotes);\n\n    /**\n     * @dev \n     */\n    function createElection(\n        string memory _name,\n        string memory _description,\n        uint256 _startTime,\n        uint256 _endTime,\n        string[] memory _candidateNames,\n        string[] memory _candidateInfos\n    ) public {\n        require(_startTime < _endTime, unicode\"\");\n        require(_candidateNames.length == _candidateInfos.length, unicode\"\");\n        require(_candidateNames.length > 1, unicode\"\");\n\n        electionCount++;\n        Election storage newElection = elections[electionCount];\n        newElection.id = electionCount;\n        newElection.name = _name;\n        newElection.description = _description;\n        newElection.startTime = _startTime;\n        newElection.endTime = _endTime;\n        newElection.isActive = true;\n        newElection.creator = msg.sender;\n        newElection.candidateCount = 0;\n\n        // \n        for (uint256 i = 0; i < _candidateNames.length; i++) {\n            newElection.candidateCount++;\n            newElection.candidates[newElection.candidateCount] = Candidate({\n                id: newElection.candidateCount,\n                name: _candidateNames[i],\n                info: _candidateInfos[i],\n                voteCount: 0\n            });\n        }\n\n        emit ElectionCreated(electionCount, _name, msg.sender);\n    }\n\n    /**\n     * @dev  - \n     * @param _electionId ID\n     * @param _commitmentHash  (keccak256(abi.encodePacked(candidateId, voterBlindingFactor)))\n     */\n    function vote(uint256 _electionId, bytes32 _commitmentHash) public {\n        Election storage election = elections[_electionId];\n        \n        require(election.isActive, unicode\"\");\n        require(block.timestamp >= election.startTime, unicode\"\");\n        require(block.timestamp <= election.endTime, unicode\"\");\n        require(!election.hasVoted[_commitmentHash], unicode\"\");\n        \n        election.hasVoted[_commitmentHash] = true;\n        \n        emit VoteCast(_electionId, _commitmentHash);\n    }\n    \n    /**\n     * @dev  - \n     * @param _electionId ID\n     * @param _candidateId ID\n     * @param _blindingFactor \n     */\n    function revealVote(uint256 _electionId, uint256 _candidateId, bytes32 _blindingFactor) public {\n        Election storage election = elections[_electionId];\n        \n        require(election.isActive, unicode\"\");\n        require(_candidateId > 0 && _candidateId <= election.candidateCount, unicode\"ID\");\n        \n        // \n        bytes32 commitmentHash = keccak256(abi.encodePacked(_candidateId, _blindingFactor));\n        \n        require(election.hasVoted[commitmentHash], unicode\"\");\n        \n        // \n        election.candidates[_candidateId].voteCount++;\n        \n        // \n        election.hasVoted[commitmentHash] = false;\n    }\n    \n    /**\n     * @dev \n     */\n    function endElection(uint256 _electionId) public {\n        Election storage election = elections[_electionId];\n        \n        require(msg.sender == election.creator, unicode\"\");\n        require(election.isActive, unicode\"\");\n        require(block.timestamp > election.endTime, unicode\"\");\n        \n        election.isActive = false;\n        \n        uint256 totalVotes = 0;\n        for (uint256 i = 1; i <= election.candidateCount; i++) {\n            totalVotes += election.candidates[i].voteCount;\n        }\n        \n        emit ElectionEnded(_electionId, totalVotes);\n    }\n    \n    /**\n     * @dev \n     */\n    function getCandidate(uint256 _electionId, uint256 _candidateId) public view returns (\n        uint256 id,\n        string memory name,\n        string memory info,\n        uint256 voteCount\n    ) {\n        Election storage election = elections[_electionId];\n        require(_candidateId > 0 && _candidateId <= election.candidateCount, unicode\"ID\");\n        \n        Candidate storage candidate = election.candidates[_candidateId];\n        return (\n            candidate.id,\n            candidate.name,\n            candidate.info,\n            candidate.voteCount\n        );\n    }\n    \n    /**\n     * @dev \n     */\n    function getCandidateCount(uint256 _electionId) public view returns (uint256) {\n        return elections[_electionId].candidateCount;\n    }\n    \n    /**\n     * @dev \n     */\n    function isElectionActive(uint256 _electionId) public view returns (bool) {\n        Election storage election = elections[_electionId];\n        return election.isActive && block.timestamp >= election.startTime && block.timestamp <= election.endTime;\n    }\n}",
  "sourcePath": "F:\\block chain\\contracts\\VotingSystem.sol",
  "compiler": {
    "name": "solc",
    "version": "0.8.19+commit.7dd6d404.Emscripten.clang"
  },
  "schemaVersion": "3.4.16",
  "updatedAt": "2025-09-26T12:01:17.925Z",
  "networkType": "ethereum",
  "devdoc": {
    "details": "",
    "kind": "dev",
    "methods": {
      "createElection(string,string,uint256,uint256,string[],string[])": {
        "details": ""
      },
      "endElection(uint256)": {
        "details": ""
      },
      "getCandidate(uint256,uint256)": {
        "details": ""
      },
      "getCandidateCount(uint256)": {
        "details": ""
      },
      "isElectionActive(uint256)": {
        "details": ""
      },
      "revealVote(uint256,uint256,bytes32)": {
        "details": " - ",
        "params": {
          "_blindingFactor": "",
          "_candidateId": "ID",
          "_electionId": "ID"
        }
      },
      "vote(uint256,bytes32)": {
        "details": " - ",
        "params": {
          "_commitmentHash": " (keccak256(abi.encodePacked(candidateId, voterBlindingFactor)))",
          "_electionId": "ID"
        }
      }
    },
    "title": "",
    "version": 1
  },
  "userdoc": {
    "kind": "user",
    "methods": {},
    "version": 1
  }
}