{
  "contractName": "ZKVoting",
  "abi": [
    {
      "inputs": [
        {
          "internalType": "address",
          "name": "_verifier",
          "type": "address"
        }
      ],
      "stateMutability": "nonpayable",
      "type": "constructor"
    },
    {
      "anonymous": false,
      "inputs": [
        {
          "indexed": true,
          "internalType": "uint256",
          "name": "electionId",
          "type": "uint256"
        },
        {
          "indexed": false,
          "internalType": "string",
          "name": "name",
          "type": "string"
        }
      ],
      "name": "ElectionCreated",
      "type": "event"
    },
    {
      "anonymous": false,
      "inputs": [
        {
          "indexed": true,
          "internalType": "uint256",
          "name": "electionId",
          "type": "uint256"
        },
        {
          "indexed": false,
          "internalType": "bytes32",
          "name": "nullifier",
          "type": "bytes32"
        }
      ],
      "name": "VoteCast",
      "type": "event"
    },
    {
      "inputs": [],
      "name": "electionCount",
      "outputs": [
        {
          "internalType": "uint256",
          "name": "",
          "type": "uint256"
        }
      ],
      "stateMutability": "view",
      "type": "function",
      "constant": true
    },
    {
      "inputs": [
        {
          "internalType": "uint256",
          "name": "",
          "type": "uint256"
        }
      ],
      "name": "elections",
      "outputs": [
        {
          "internalType": "uint256",
          "name": "id",
          "type": "uint256"
        },
        {
          "internalType": "string",
          "name": "name",
          "type": "string"
        },
        {
          "internalType": "uint256",
          "name": "startTime",
          "type": "uint256"
        },
        {
          "internalType": "uint256",
          "name": "endTime",
          "type": "uint256"
        },
        {
          "internalType": "bool",
          "name": "isActive",
          "type": "bool"
        },
        {
          "internalType": "uint256",
          "name": "candidateCount",
          "type": "uint256"
        }
      ],
      "stateMutability": "view",
      "type": "function",
      "constant": true
    },
    {
      "inputs": [],
      "name": "verifier",
      "outputs": [
        {
          "internalType": "address",
          "name": "",
          "type": "address"
        }
      ],
      "stateMutability": "view",
      "type": "function",
      "constant": true
    },
    {
      "inputs": [
        {
          "internalType": "string",
          "name": "_name",
          "type": "string"
        },
        {
          "internalType": "uint256",
          "name": "_startTime",
          "type": "uint256"
        },
        {
          "internalType": "uint256",
          "name": "_endTime",
          "type": "uint256"
        },
        {
          "internalType": "uint256",
          "name": "_candidateCount",
          "type": "uint256"
        }
      ],
      "name": "createElection",
      "outputs": [],
      "stateMutability": "nonpayable",
      "type": "function"
    },
    {
      "inputs": [
        {
          "internalType": "uint256",
          "name": "_electionId",
          "type": "uint256"
        },
        {
          "internalType": "uint256",
          "name": "_candidateId",
          "type": "uint256"
        },
        {
          "internalType": "bytes32",
          "name": "_nullifier",
          "type": "bytes32"
        },
        {
          "internalType": "bytes",
          "name": "_proof",
          "type": "bytes"
        }
      ],
      "name": "castVoteWithZKProof",
      "outputs": [],
      "stateMutability": "nonpayable",
      "type": "function"
    },
    {
      "inputs": [
        {
          "internalType": "uint256",
          "name": "_electionId",
          "type": "uint256"
        }
      ],
      "name": "endElection",
      "outputs": [],
      "stateMutability": "nonpayable",
      "type": "function"
    },
    {
      "inputs": [
        {
          "internalType": "uint256",
          "name": "_electionId",
          "type": "uint256"
        },
        {
          "internalType": "uint256",
          "name": "_candidateId",
          "type": "uint256"
        }
      ],
      "name": "getVoteCount",
      "outputs": [
        {
          "internalType": "uint256",
          "name": "",
          "type": "uint256"
        }
      ],
      "stateMutability": "view",
      "type": "function",
      "constant": true
    }
  ],
  "bytecode": "0x608060405234801561001057600080fd5b50604051610ae8380380610ae883398101604081905261002f91610054565b600280546001600160a01b0319166001600160a01b0392909216919091179055610084565b60006020828403121561006657600080fd5b81516001600160a01b038116811461007d57600080fd5b9392505050565b610a55806100936000396000f3fe608060405234801561001057600080fd5b506004361061007d5760003560e01c80639c98bcbb1161005b5780639c98bcbb146100ee578063aac2535614610103578063de2e19a014610116578063e3cd91fa1461012957600080fd5b80632b7ac3f3146100825780635e6fef01146100b2578063997d2830146100d7575b600080fd5b600254610095906001600160a01b031681565b6040516001600160a01b0390911681526020015b60405180910390f35b6100c56100c0366004610674565b61013c565b6040516100a9969594939291906106d3565b6100e060015481565b6040519081526020016100a9565b6101016100fc366004610674565b610200565b005b61010161011136600461079d565b6102d2565b6100e061012436600461080b565b6104a5565b61010161013736600461082d565b61052a565b6000602081905290815260409020805460018201805491929161015e90610895565b80601f016020809104026020016040519081016040528092919081815260200182805461018a90610895565b80156101d75780601f106101ac576101008083540402835291602001916101d7565b820191906000526020600020905b8154815290600101906020018083116101ba57829003601f168201915b5050506002840154600385015460048601546006909601549495919490935060ff909116915086565b6000818152602081905260409020600481015460ff166102715760405162461bcd60e51b815260206004820152602160248201527fe68a95e7a5a8e6b4bbe58aa8e5b7b2e7bb93e69d9fe68896e4b88de5ad98e59c6044820152601560fb1b60648201526084015b60405180910390fd5b806003015442116102c45760405162461bcd60e51b815260206004820152601860248201527fe68a95e7a5a8e697b6e997b4e5b09ae69caae7bb93e69d9f00000000000000006044820152606401610268565b600401805460ff1916905550565b6000848152602081905260409020600481015460ff1661033e5760405162461bcd60e51b815260206004820152602160248201527fe68a95e7a5a8e6b4bbe58aa8e4b88de5ad98e59ca8e68896e5b7b2e7bb93e69d6044820152609f60f81b6064820152608401610268565b80600201544210156103875760405162461bcd60e51b8152602060048201526012602482015271e68a95e7a5a8e5b09ae69caae5bc80e5a78b60701b6044820152606401610268565b80600301544211156103cd5760405162461bcd60e51b815260206004820152600f60248201526ee68a95e7a5a8e5b7b2e7bb93e69d9f60881b6044820152606401610268565b600083815260078201602052604090205460ff16156104265760405162461bcd60e51b81526020600482015260156024820152741cd5b49d15f03cd311dcb6f65d14557c97b7fcf295605b1b6044820152606401610268565b600160008481526007830160209081526040808320805460ff1916600117905587835260058501909152812080549161045e836108cf565b9190505550857f360a953ca6204e950fa88a5b660c09f12df914124ec5270703b41dcc58b567488560405161049591815260200190565b60405180910390a2505050505050565b600080821180156104c757506000838152602081905260409020600601548211155b61050a5760405162461bcd60e51b815260206004820152601460248201527339a5e839a56239e6a13960267a6022792eae925160621b6044820152606401610268565b506000918252602082815260408084209284526005909201905290205490565b8183106105855760405162461bcd60e51b8152602060048201526024808201527fe5bc80e5a78be697b6e997b4e5bf85e9a1bbe697a9e4ba8ee7bb93e69d9fe6976044820152632dba65ed60e21b6064820152608401610268565b600181116105d55760405162461bcd60e51b815260206004820152601b60248201527fe887b3e5b091e99c80e8a681e4b8a4e5908de58099e98089e4baba00000000006044820152606401610268565b600180549060006105e5836108cf565b909155505060018054600081815260208190526040902090815590810161060c8682610945565b50600281018490556003810183905560048101805460ff1916600190811790915560068201839055546040517f52be7c4e77b4de76b7607d621492061fe13b58597e72dfb5e51ab8f6187ed14190610665908890610a05565b60405180910390a25050505050565b60006020828403121561068657600080fd5b5035919050565b6000815180845260005b818110156106b357602081850181015186830182015201610697565b506000602082860101526020601f19601f83011685010191505092915050565b86815260c0602082015260006106ec60c083018861068d565b6040830196909652506060810193909352901515608083015260a09091015292915050565b634e487b7160e01b600052604160045260246000fd5b600067ffffffffffffffff8084111561074257610742610711565b604051601f8501601f19908116603f0116810190828211818310171561076a5761076a610711565b8160405280935085815286868601111561078357600080fd5b858560208301376000602087830101525050509392505050565b600080600080608085870312156107b357600080fd5b843593506020850135925060408501359150606085013567ffffffffffffffff8111156107df57600080fd5b8501601f810187136107f057600080fd5b6107ff87823560208401610727565b91505092959194509250565b6000806040838503121561081e57600080fd5b50508035926020909101359150565b6000806000806080858703121561084357600080fd5b843567ffffffffffffffff81111561085a57600080fd5b8501601f8101871361086b57600080fd5b61087a87823560208401610727565b97602087013597506040870135966060013595509350505050565b600181811c908216806108a957607f821691505b6020821081036108c957634e487b7160e01b600052602260045260246000fd5b50919050565b6000600182016108ef57634e487b7160e01b600052601160045260246000fd5b5060010190565b601f82111561094057600081815260208120601f850160051c8101602086101561091d5750805b601f850160051c820191505b8181101561093c57828155600101610929565b5050505b505050565b815167ffffffffffffffff81111561095f5761095f610711565b6109738161096d8454610895565b846108f6565b602080601f8311600181146109a857600084156109905750858301515b600019600386901b1c1916600185901b17855561093c565b600085815260208120601f198616915b828110156109d7578886015182559484019460019091019084016109b8565b50858210156109f55787850151600019600388901b60f8161c191681555b5050505050600190811b01905550565b602081526000610a18602083018461068d565b939250505056fea2646970667358221220c5c5f39ded1c79ac7f6eda7a4b81a1fb1cb7240fa456abb55db22c8c84c07cda64736f6c63430008130033",
  "immutableReferences": {},
  "source": "// SPDX-License-Identifier: MIT\npragma solidity ^0.8.0;\n\n/**\n * @title \n * @dev \n */\ncontract ZKVoting {\n    // \n    struct Election {\n        uint256 id;\n        string name;\n        uint256 startTime;\n        uint256 endTime;\n        bool isActive;\n        mapping(uint256 => uint256) results; // ID => \n        uint256 candidateCount;\n        // \n        mapping(bytes32 => bool) verifiedProofs;\n    }\n    \n    // \n    mapping(uint256 => Election) public elections;\n    uint256 public electionCount;\n    \n    // \n    address public verifier;\n    \n    // \n    event ElectionCreated(uint256 indexed electionId, string name);\n    event VoteCast(uint256 indexed electionId, bytes32 nullifier);\n    \n    /**\n     * @dev \n     * @param _verifier \n     */\n    constructor(address _verifier) {\n        verifier = _verifier;\n    }\n    \n    /**\n     * @dev \n     */\n    function createElection(\n        string memory _name,\n        uint256 _startTime,\n        uint256 _endTime,\n        uint256 _candidateCount\n    ) public {\n        require(_startTime < _endTime, unicode\"\");\n        require(_candidateCount > 1, unicode\"\");\n        \n        electionCount++;\n        Election storage newElection = elections[electionCount];\n        newElection.id = electionCount;\n        newElection.name = _name;\n        newElection.startTime = _startTime;\n        newElection.endTime = _endTime;\n        newElection.isActive = true;\n        newElection.candidateCount = _candidateCount;\n        \n        emit ElectionCreated(electionCount, _name);\n    }\n    \n    /**\n     * @dev \n     * @param _electionId ID\n     * @param _candidateId ID\n     * @param _nullifier \n     * @param _proof \n     */\n    function castVoteWithZKProof(\n        uint256 _electionId,\n        uint256 _candidateId,\n        bytes32 _nullifier,\n        bytes memory _proof\n    ) public {\n        Election storage election = elections[_electionId];\n        \n        require(election.isActive, unicode\"\");\n        require(block.timestamp >= election.startTime, unicode\"\");\n        require(block.timestamp <= election.endTime, unicode\"\");\n        require(!election.verifiedProofs[_nullifier], unicode\"\");\n        \n        // \n        // \n        // \n        bool proofValid = verifyProof(_proof, _nullifier, _candidateId, _electionId);\n        require(proofValid, unicode\"\");\n        \n        // \n        election.verifiedProofs[_nullifier] = true;\n        \n        // \n        election.results[_candidateId]++;\n        \n        emit VoteCast(_electionId, _nullifier);\n    }\n    \n    /**\n     * @dev \n     * \n     */\n    function verifyProof(\n        bytes memory _proof,\n        bytes32 _nullifier,\n        uint256 _candidateId,\n        uint256 _electionId\n    ) internal pure returns (bool) {\n        // \n        // true\n        return true;\n    }\n    \n    /**\n     * @dev \n     */\n    function endElection(uint256 _electionId) public {\n        Election storage election = elections[_electionId];\n        require(election.isActive, unicode\"\");\n        require(block.timestamp > election.endTime, unicode\"\");\n        \n        election.isActive = false;\n    }\n    \n    /**\n     * @dev \n     */\n    function getVoteCount(uint256 _electionId, uint256 _candidateId) public view returns (uint256) {\n        require(_candidateId > 0 && _candidateId <= elections[_electionId].candidateCount, unicode\"ID\");\n        return elections[_electionId].results[_candidateId];\n    }\n}",
  "sourcePath": "F:\\block chain\\contracts\\ZKVoting.sol",
  "compiler": {
    "name": "solc",
    "version": "0.8.19+commit.7dd6d404.Emscripten.clang"
  },
  "schemaVersion": "3.4.16",
  "updatedAt": "2025-09-26T12:01:17.933Z",
  "networkType": "ethereum",
  "devdoc": {
    "details": "",
    "kind": "dev",
    "methods": {
      "castVoteWithZKProof(uint256,uint256,bytes32,bytes)": {
        "details": "",
        "params": {
          "_candidateId": "ID",
          "_electionId": "ID",
          "_nullifier": "",
          "_proof": ""
        }
      },
      "constructor": {
        "details": "",
        "params": {
          "_verifier": ""
        }
      },
      "createElection(string,uint256,uint256,uint256)": {
        "details": ""
      },
      "endElection(uint256)": {
        "details": ""
      },
      "getVoteCount(uint256,uint256)": {
        "details": ""
      }
    },
    "title": "",
    "version": 1
  },
  "userdoc": {
    "kind": "user",
    "methods": {},
    "version": 1
  }
}